:10000000B8C00000D4C00000D2C00000D0C00000C2
:10001000CEC00000CCC00000CAC00000C8C00000B4
:10002000C6C00000C4C000000C94B409C0C00000E9
:10003000BEC00000BCC00000BAC00000B8C00000D4
:10004000B6C00000B4C00000B2C00000B0C00000E4
:10005000AEC00000ACC00000AAC00000A8C00000F4
:10006000A6C00000A4C00000A2C00000A0C0000004
:100070009EC00000CEC400009AC0000098C00000DE
:10008000D1C0000094C0000092C00000CDC50000A7
:100090008EC000008CC000001201000200000008A9
:1000A0008117AF0B000001020001090227000101C6
:1000B00000C0FA0904000003FFFFFF000705060265
:1000C00010000007058202100000070583024000AF
:1000D00000040309041203530074007200610077E6
:1000E000006D0061006E0000005203430061006D6E
:1000F0000065007200610020005400720069006712
:1001000000670065007200200031002E00300031D1
:10011000002000280046005F0043005000550020EA
:10012000003D00200031003600300030003000304B
:10013000003000300055004C002900200020002035
:1001400000200020002000200020002000200020AF
:100150000020002000200020000000454647656682
:100160006700202B2D2E3031323334353637383975
:10017000680011241FBECFEFD0E2DEBFCDBF11E07B
:10018000A0E0B1E0E0E2FAE100E00BBF02C00790BE
:100190000D92A431B107D9F719E1A4E1B1E001C092
:1001A0001D92AA30B107E1F7ECD30C940E0D28CFC5
:1001B00088B1877888B988E487B980E684B984EF04
:1001C00091E090938700809386002AEA2093800034
:1001D00089E180938100109289001092880010922A
:1001E0008B0010928A0088EE93E0909399008093A0
:1001F000980010929B0010929A0010929D0010920D
:100200009C0080E197E29093970080939600209362
:1002100090008AE180939100E1E7F0E080818260C4
:10022000808308951F920F920FB60F9211242F937F
:100230008F939F93AF93BF9380911501882339F0DB
:1002400080919100887F8093910010921501809198
:100250001B0190911C01A0911D01B0911E018F5FA7
:100260009F4FAF4FBF4FA1F080911B0190911C0198
:10027000A0911D01B0911E010196A11DB11D809399
:100280001B0190931C01A0931D01B0931E0138C067
:1002900080911B0190911C01A0911D01B0911E0144
:1002A0000196A11DB11D80931B0190931C01A09389
:1002B0001D01B0931E0180911F0190912001A0911A
:1002C0002101B09122010196A11DB11D80931F0152
:1002D00090932001A0932101B093220180911F01EE
:1002E00090912001A0912101B0912201B7FF08C097
:1002F00010921F01109220011092210110922201F0
:10030000BF91AF919F918F912F910F900FBE0F9042
:100310001F9018950E94310C8F5F9F432CF4109210
:10032000160180ED97E005C081E08093160180E71B
:1003300097E190939B0080939A0090911601809191
:1003400028018F5F80932801809128018A3010F066
:1003500010922801E0912801F0E0E85DFE4F9183C2
:10036000E0912801F0E080911B0190911C01A09187
:100370001D01B0911E010296A11DB11DEE0FFF1FC0
:10038000EE0FFF1FE85DFE4F83879487A587B68732
:1003900008950F93BFDF89EC91E041E050E060E009
:1003A00070E023E001E0B1D40F9108950F9386ED42
:1003B00091E042E050E060E070E022E000E0A5D48F
:1003C00043980F9108950F9383EE91E042E050E03F
:1003D00060E070E021E000E098D442980F91089529
:1003E0000F9380EF91E042E050E060E070E020E0A9
:1003F00000E08BD441980F910895809108198823CB
:1004000041F183E08093E9008091E80085FF21C0FD
:100410008091CF189091D018892B41F408958BE5E5
:1004200091E0EFD48093F1009093F1008091CF1888
:100430009091D018892B41F08091F2009091F300B7
:1004400001968034910558F38091E8008F7780936E
:10045000E8000895AF92BF92CF92DF92EF92FF92A1
:100460000F931F9380910819882309F46BC286E0CB
:100470008093E9008091E80085FF64C28091F100DB
:10048000863009F4C2C0873098F4823009F466C01F
:10049000833038F4882309F4E0C0813009F0E7C1E3
:1004A0001FC0833009F48CC0853009F0E0C175C0ED
:1004B000893009F451C18A3038F4873009F4E7C033
:1004C000883009F0D4C10AC08B3009F454C18B3094
:1004D00008F449C18C3009F0CAC17FC191E0C8C19C
:1004E0008091F100782F60E08091F100680F711D1C
:1004F0008091F100582F40E08091F100480F511D8C
:100500008091F100382F20E08091F100280F311DFB
:10051000E091F1009E2F80E0E091F1008E0F911D9F
:10052000E091F100709399006093980050939B00C4
:1005300040939A0030939D0020939C0090939700E5
:1005400080939600109295001092940080919100F3
:10055000E770887FE82BE093910089C1809191003A
:10056000887F8093910080E09FEF90939500809327
:1005700094008FEF90E090939900809398008FEF14
:100580009FEF909397008093960081E080931501F0
:1005900080919100887F816035C0F89410921B0192
:1005A00010921C0110921D0110921E0110921F0149
:1005B000109220011092210110922201789457C1CB
:1005C00080E09EEF90939900809398008FEF9EEFCC
:1005D00090939700809396008FEF9FEF90939500F4
:1005E0008093940080919100887F81608093910036
:1005F00080919400909195008F5F9F4FC9F38091F7
:100600009100887F8093910032C18091F100E82EA3
:1006100080FF0AC0419A80EF91E042E050E060E044
:1006200070E020E001E071D3E1FE0AC0429A83EE5F
:1006300091E042E050E060E070E021E001E065D34D
:10064000E2FE15C1439A86ED91E042E050E060E0A1
:1006500070E022E001E059D30AC157D480917A00BA
:10066000877F80937A001092710080E880937A00EF
:1006700080ED97E020E931E0F9013197F1F701973A
:10068000D9F7E0910C01F0910D010995F0C080912E
:10069000F1001091F100082F86FF07C0F894109226
:1006A00019018BE591E057D3789400FF4DC0F89481
:1006B0001092180102FF05C01092D11881E08093BA
:1006C000180103FF0BC080911801E82FF0E0EF52F2
:1006D000F74E91E090838F5F8093180104FF0BC069
:1006E00080911801E82FF0E0EF52F74E92E09083EE
:1006F0008F5F8093180105FF0BC080911801E82FD0
:10070000F0E0EF52F74E93E090838F5F80931801F3
:10071000812F86958695869580931A011770186AA1
:1007200010937A0078941092170180917A00886073
:1007300080937A008091D118806680937C008091AC
:100740007A00806480937A0001FF91C080917A00E2
:10075000877F80937A008BC09091F1008BB18F706E
:10076000892B8BB984C08091F100882311F43D98C6
:100770007EC03D9A7CC02091F100922F80E02091B4
:10078000F100AC01420F511D2091F100922F80E049
:100790002091F100BC01620F711D9B0171E0453F8A
:1007A000570728F4509389004093880006C084EFCF
:1007B00091E0909389008093880081E0253F38077D
:1007C00028F430938B0020938A0051C084EF91E08D
:1007D00090938B0080938A004AC06091F1008091D1
:1007E000F1002091F100E090F10090E0A0E0B0E095
:1007F000AA24B82EC92EDA2E30E040E050E0A9013C
:1008000033272227A20EB31EC41ED51EA60EB11C6E
:10081000C11CD11CFF2400E010E01E2D0027FF2486
:10082000EE24AE0CBF1CC01ED11E4FB7F89472E070
:1008300020E030E0F901EE0FFF1FEE0FFF1FE85D33
:10084000FE4F83859485A585B685A816B906CA0688
:10085000DB0621F4F901E85DFE4F71812F5F3F4F08
:100860002A30310539F74FBF90E061E002C090E0D7
:1008700060E08091E8008F778093E800992309F485
:1008800051C082E88093E9008FB7F894E09194001A
:10089000F091950020911B0130911C0140911D01A8
:1008A00050911E01A0901F01B0902001C090210125
:1008B000D0902201709116018FBF8091E80085FFD2
:1008C000FCCF2093F100BB27A52F942F832F80937B
:1008D000F100CA01AA27BB278093F100852F992731
:1008E000AA27BB278093F100A092F100BB27AD2D72
:1008F0009C2D8B2D8093F100C601AA27BB278093E6
:10090000F1008D2D9927AA27BB278093F100E09352
:10091000F100F093F1007093F1008091E8008F777F
:100920008093E800662371F082E88093E90080916B
:10093000E80085FFFCCF7093F1008091E8008F778D
:100940008093E8001F910F91FF90EF90DF90CF9080
:10095000BF90AF9008950F9382E862E041E020E1FC
:1009600030E000E001D386E062E040E020E130E0EA
:10097000FBD283E062E041E020E430E0F5D20F9169
:1009800008950F931F93CF93DF9384B7877F84BF1E
:1009900088E10FB6F89480936000109260000FBE5B
:1009A00090E080E80FB6F894809361009093610026
:1009B0000FBE8BE591E0CFD110BA109218018AB129
:1009C000806F8AB98BB18F708BB9F2DB1FD17894AD
:1009D00013E010930119B7D23D989CDC89EC91E0AB
:1009E00041E050E060E070E023E001E08ED1109340
:1009F0000119C0E0D1E007C08A81882319F0E8819D
:100A0000F9810995249681E0CC30D807A9F72C9775
:100A1000FACF1F920F920FB60F920BB60F921124BE
:100A20001F932F933F934F935F936F937F938F9376
:100A30009F93AF93BF93CF93DF93EF93FF938091F7
:100A40002301882321F08150809323019BC0809152
:100A50001A01809323016091780070917900C09110
:100A60009400D091950040917C00809119012091D3
:100A7000260130912701622B732B90E0682B792B94
:100A8000437050E0642B752BCB0196958795969516
:100A900087958073907090932701809326018091B1
:100AA00017018F5F8093170190911801891710F03B
:100AB00010921701E0911701F0E0EF52F74E80819C
:100AC000806680937C00809124019091250100979D
:100AD00039F00197909325018093240110E008C01C
:100AE0008AEF90E09093250180932401646011E0E7
:100AF0008BE591E045D1882319F488E080931901B2
:100B0000112309F43FC020911B0130911C01409139
:100B10001D0150911E018BE591E0B90131D1209169
:100B20001B0130911C0140911D0150911E019A0141
:100B3000442755278BE591E0B90122D120911F016F
:100B40003091200140912101509122018BE591E0EB
:100B5000B90116D120911F0130912001409121014E
:100B6000509122019A01442755278BE591E0B90164
:100B700007D18BE591E0BE0103D1882319F488E009
:100B800080931901FF91EF91DF91CF91BF91AF91C8
:100B90009F918F917F916F915F914F913F912F9195
:100BA0001F910F900BBE0F900FBE0F901F901895C6
:100BB000DA01923049F0933061F09130F9F4E8E9CC
:100BC000F0E022E130E01EC0EAEAF0E027E230E0A7
:100BD00019C0813049F0813018F0823079F408C0B2
:100BE000E1EDF0E0849107C0E5EDF0E0849103C011
:100BF000E9EEF0E08491282F30E004C0E0E0F0E07E
:100C000020E030E0ED93FC93C90108951092DD18C7
:100C10001092DE181092DF181092E018E1E7F0E071
:100C200080818160808308951F920F920FB60F928A
:100C30000BB60F921124EF92FF920F931F932F93F5
:100C40003F934F935F936F937F938F939F93AF9354
:100C5000BF93CF93DF93EF93FF9391EEE92E98E14B
:100C6000F92E05ED18E1C0E0D0E0FE01E352F74EA9
:100C70008081813039F5FE01EE0FFF1FEE0FFF1F5F
:100C8000EF50F74E80819181A281B3810197A10934
:100C9000B10980839183A283B38380819181A281F2
:100CA000B3810097A105B10569F4D7012D913D915C
:100CB0004D915C912083318342835383D801ED9120
:100CC000FC910995219684E090E0E80EF91E0E5FF4
:100CD0001F4FC430D10549F6FF91EF91DF91CF91BD
:100CE000BF91AF919F918F917F916F915F914F9144
:100CF0003F912F911F910F91FF90EF900F900BBE9E
:100D00000F900FBE0F901F9018950F93CF93DF9306
:100D1000A22FB0E0FD01EE0FFF1FEB52F74E9183C3
:100D20008083FD01EE0FFF1FEE0FFF1FCF018F51DC
:100D3000974EEC01488359836A837B83EF50F74ECB
:100D40004083518362837383A352B74E0C93DF9128
:100D5000CF910F910895FC018FB7F894DF01A0594E
:100D6000B84E1196FC93EE93DF01AE58B84E119633
:100D7000FC93EE93EC58F84E118210828FBF0895C9
:100D80001F93AC011FB7F894FC01EC58F84E80811A
:100D90009181885B9B40A1F4FA01EE58F84E808166
:100DA000918102969183808320813181CA0180598B
:100DB000984E2817390711F45183408320E006C06C
:100DC0008081918101969183808321E0DA01A0598D
:100DD000B84EED91FC911197718360838D919C9138
:100DE0001197029611969C938E93ED91FC91119719
:100DF000EA17FB0711F4518340831FBF822F1F9115
:100E000008951F93AC011FB7F894DC01AE58B84E9B
:100E1000ED91FC911197608171818D919C91119759
:100E2000029611969C938E93FA01EC58F84E8081AD
:100E300091810197918380832D913C911197CA01F3
:100E40008059984E2817390719F411965C934E93E0
:100E50001FBFCB011F910895DF93CF9300D0CDB773
:100E6000DEB775D27CD21092081910920619109232
:100E70000919109205191092041984E189BD89B5E8
:100E8000826089BD09B400FEFDCF8091D800982F03
:100E90009F779093D80080688093D8008091D70086
:100EA00081608093D7008091D8008F7D8093D80097
:100EB0008091E0008B7F8093E0008091D80081607A
:100EC0008093D80080E091E060E0AE014F5F5F4F1B
:100ED0006FDE892B31F0E981FA813796E491E09356
:100EE0000E018091E0008E7F8093E0008091E2000F
:100EF00081608093E2008091E20088608093E2004C
:100F00000F900F90CF91DF91089580910819882359
:100F100009F0F9D28091E00081608093E00017D25F
:100F20001ED210920819109207191092061980917A
:100F3000D8008F778093D80019BC8091D8008F7E1D
:100F40008093D8000895E1DFE7EDF0E080818068CC
:100F5000808382DFE8EDF0E080818061808381E042
:100F600080930719789408950F938093E9008091F6
:100F7000EB0081608093EB001092ED006295660FAC
:100F8000660F607C642B6093EC002930310510F40F
:100F900080E015C02131310510F480E110C021320C
:100FA000310510F480E20BC02134310510F480E3E8
:100FB00006C02138310510F080E501C080E40260F0
:100FC000802B8093ED008091EE00881F8827881F7A
:100FD0000F9108951092F40090E09093E900109220
:100FE000F0001092E8008091ED008D7F8093ED007D
:100FF0008091EB008E7F8093EB009F5F973069F7C5
:1010000008950F931F93DF93CF9300D000D0CDB7F7
:10101000DEB76091F1005091F100553009F494C0B1
:10102000563048F4513009F44AC0513070F0533012
:1010300009F05CC144C0583009F416C1593009F4B4
:101040002EC1563009F052C19AC0603819F062388A
:1010500009F04CC18091F1008091F1008091F10084
:10106000603821F0623851F090E014C0909104197A
:1010700080910519882371F092600CC08093E9007B
:101080008091EB0090E025E0969587952A95E1F711
:10109000982F91701092E9008091E800877F8093EB
:1010A000E8009093F1001092F1008091E8008E7FAB
:1010B0008093E8008091E80082FFFCCFEAC06230B4
:1010C00009F014C18091F1004091F1007091F1009C
:1010D0006091F100342F20E090E0282B392B232B56
:1010E00009F006C180E0272F282B277009F400C1E2
:1010F0002093E9008091EB0080FF1BC05130A1F4E8
:101100008091EB0080618093EB0081E090E002C071
:10111000880F991F2A95E2F78093EA001092EA005F
:101120008091EB00886003C08091EB008062809327
:10113000EB001092E9008091E800877F8093E8003F
:101140008091E8008E7FA8C0662309F0CFC09091FF
:10115000F1008091E800877F8093E8008091E800AB
:1011600080FFFCCF8091E8008E7F8093E800809123
:10117000E80080FFFCCF90689093E300B9C0862F11
:101180008058823008F0B2C04091F1006091F100C7
:101190002091F100E091F1000091F1001091F10037
:1011A000962F80E050E07E2F60E030E0622B732BC2
:1011B000842B952BAE014F5F5F4FFADCAC0100979B
:1011C00009F496C08091E800877F8093E800912F12
:1011D00080E0202F30E0282B392B2417350708F426
:1011E000A90180910E01A82FB0E069817A8120E0E9
:1011F0008D0127C08091E80082FD4BC08091E800FE
:1012000080FFF8CF09C0FB016F5F7F4FE491E0934F
:10121000F1004150504039F08091F2009091F3007C
:101220008A179B0780F38091F2009091F30020E0F1
:101230008017910709F421E08091E8008E7F809368
:10124000E80041155105D1F6222349F08091E800CC
:1012500080FFFCCF8091E8008E7F8093E800809132
:10126000E80082FFFCCF15C0603809F03FC08091D4
:10127000E800877F8093E800809106198093F10051
:101280008091E8008E7F8093E8008091E80082FFE3
:10129000FCCF8091E8008B7F8093E80029C0662313
:1012A00029F51091F1000091061980E091E0AE015E
:1012B0004D5F5F4F7DDC892BD9F0EB81FC8171960E
:1012C000E491E117A8F08091E800877F8093E8001F
:1012D000109306198091E8008E7F8093E800002328
:1012E00019F4112309F00FD136DB02C0852F0BD181
:1012F0008091E80083FF0AC08091EB0080628093B8
:10130000EB008091E800877F8093E8000F900F90BA
:101310000F900F90CF91DF911F910F9108950F9330
:101320001F9380910819882379F00091E9001092A9
:10133000E9008091E80083FF04C01FB7F89461DEE4
:101340001FBF07700093E9001F910F910895E8ED0A
:10135000F0E080818C7F80831092E20008951092EB
:10136000DA001092E10008951F920F920FB60F92CB
:101370000BB60F9211240F932F933F934F935F93CC
:101380006F937F938F939F93AF93BF93EF93FF934D
:101390008091DA0080FF33C08091D80080FF2FC099
:1013A0008091DA008E7F8093DA00ADD08091D900F1
:1013B00080FF0CC0A8D080910819882309F0A3D021
:1013C0004BDD81E0809308199ED019C09CD080919C
:1013D000E00081608093E0008091D800806280937B
:1013E000D80019BC8091D7008E7F8093D7001092CF
:1013F000081989D08091DA008E7F8093DA0080917D
:10140000E10080FF1DC08091E20080FF19C0809143
:10141000E1008E7F8093E1008091E2008E7F8093D7
:10142000E2008091E20080618093E2008091D80028
:1014300080628093D80019BC81E08093091963D041
:101440008091E10084FF23C08091E20084FF1FC0EF
:1014500084E189BD89B5826089BD09B400FEFDCFF4
:101460008091D8008F7D8093D8008091E1008F7E9D
:101470008093E1008091E2008F7E8093E200809172
:10148000E20081608093E200109209193CD08091C3
:10149000E10083FF24C08091E20083FF20C080919F
:1014A000E100877F8093E100109206198091E100AE
:1014B0008E7F8093E1008091E2008E7F8093E20036
:1014C0008091E20080618093E20084DD20910E0132
:1014D00080E060E040E030E000E046DD14D0FF91C5
:1014E000EF91BF91AF919F918F917F916F915F919C
:1014F0004F913F912F910F910F900BBE0F900FBE08
:101500000F901F90189508956F927F928F929F92DF
:10151000AF92BF92CF92DF92EF92FF920F931F9301
:10152000DF93CF93CDB7DEB72B970FB6F894DEBF1E
:101530000FBECDBF5C014B017A01FC011782168200
:10154000838181FD08C06FEF7FEFFEC042E050E075
:10155000E40EF51E04C03E010894611C711CF501E7
:10156000D380F401D3FC8591D3FE81914F01882370
:1015700009F4E7C0853259F4D3FC6591D3FE61913B
:101580004F01653219F0062F10E01AC085E290E095
:1015900029C0002309F4D5C082E691E0602F70E0F5
:1015A0006ED1892B39F4033211F4106103C00C366B
:1015B00061F41068F401D3FC0591D3FE01914F0151
:1015C00017FFE7CF002309F4BCC08BE591E0602F43
:1015D00070E055D1892B49F044E050E0E40EF51E4F
:1015E0008FE390E0B50156D1BACF033629F0033727
:1015F00071F00335E1F40AC087010E5F1F4FF70158
:1016000080819181B50146D17801A9CF1160F701A0
:10161000C080D18003C090E0B5013CD1F60110FD3F
:10162000859110FF81916F018823A9F78FCF043630
:1016300011F0093639F517FF08C0F7012081318113
:101640004281538184E090E00AC0F701808191815A
:101650009C01442737FD4095542F82E090E0E80E2E
:10166000F91E1F7E57FF08C0509540953095219573
:101670003F4F4F4F5F4F1064CA01B901A3012AE0E9
:1016800030E034C00037A9F0013730F40835B1F04C
:101690000F3609F056C006C0053739F0083709F093
:1016A00050C008C028E030E00CC01F7E2AE030E0C7
:1016B00008C01061146220E130E003C0146020E132
:1016C00032E017FF08C0F701608171818281938148
:1016D00044E050E008C0F70180819181BC0180E0C6
:1016E00090E042E050E0E40EF51EA301FFD0D82EBA
:1016F000D618012F10E006FF04C08DE290E0B5017E
:10170000C9D004FF13C0FE01ED0DF11D80818033AF
:1017100069F080E390E0B501BDD002FF07C0007220
:101720001070C801885A9F4FB501B4D0DA94F30104
:10173000ED0DF11D808190E0B501ACD0DD20B1F759
:101740000ECFF50166817781CB012B960FB6F89409
:10175000DEBF0FBECDBFCF91DF911F910F91FF90E4
:10176000EF90DF90CF90BF90AF909F908F907F9041
:101770006F900895A1E21A2EAA1BBB1BFD010DC09C
:10178000AA1FBB1FEE1FFF1FA217B307E407F50731
:1017900020F0A21BB30BE40BF50B661F771F881F0D
:1017A000991F1A9469F760957095809590959B01A3
:1017B000AC01BD01CF010895AF92BF92CF92DF92ED
:1017C000EF92FF920F931F93CF93DF93EC01A880CA
:1017D000B980CA80DB80A114B104C104D10441F4F2
:1017E00084E2A82E89EDB82E8BE5C82E87E0D82E8E
:1017F000C601B5012DE133EF41E050E0F4D027EA16
:1018000031E440E050E0D0D07B018C01C601B5014D
:101810002DE133EF41E050E0E6D0CA01B9012CEEF2
:1018200034EF4FEF5FEFC0D06E0D7F1D801F911F13
:1018300097FF04C06150704080409048688379836E
:101840008A839B839B013F77C901DF91CF911F91D1
:101850000F91FF90EF90DF90CF90BF90AF900895E1
:10186000ABCF8FE091E0A8CFA0E0B0E080930F0174
:1018700090931001A0931101B09312010895FC01FF
:101880000590061621F00020D9F7C0010895319780
:10189000CF0108950F931F93CF93DF938C01EB013A
:1018A0008B8181FF1BC082FF0DC02E813F818C8107
:1018B0009D812817390764F4E881F9810193F98340
:1018C000E88306C0E885F985802F0995892B31F4D6
:1018D0008E819F8101969F838E8302C00FEF1FEF41
:1018E000C801DF91CF911F910F910895FA01AA27A6
:1018F000283051F1203181F1E8946F936E7F6E5F53
:101900007F4F8F4F9F4FAF4FB1E03ED0B4E03CD000
:10191000670F781F891F9A1FA11D680F791F8A1FE3
:10192000911DA11D6A0F711D811D911DA11D20D04A
:1019300009F468943F912AE0269F11243019305D04
:101940003193DEF6CF010895462F4770405D4193F5
:10195000B3E00FD0C9F7F6CF462F4F70405D4A3342
:1019600018F0495D31FD4052419302D0A9F7EACF0A
:10197000B4E0A6959795879577956795BA95C9F739
:1019800000976105710508959B01AC010A2E06942C
:101990005795479537952795BA95C9F7620F731FE5
:1019A000841F951FA01D0895629FD001739FF001B1
:1019B000829FE00DF11D649FE00DF11D929FF00DDF
:1019C000839FF00D749FF00D659FF00D9927729F16
:1019D000B00DE11DF91F639FB00DE11DF91FBD01A1
:1019E000CF011124089597FB092E05260ED057FD2F
:1019F00004D0C0DE0AD0001C38F4509540953095D4
:101A000021953F4F4F4F5F4F0895F6F79095809582
:101A1000709561957F4F8F4F9F4F0895F894FFCF3A
:101A20008F0901002A020100FD01010000F00801F8
:041A300000000000B2
:00000001FF
